:020000040800F2
:10000000000002205D200008C9060008CB06000899
:10001000CD060008CF060008D10600080000000049
:10002000000000000000000000000000D3060008EF
:10003000D506000800000000D7060008D906000811
:10004000B1200008B1200008B1200008B12000084C
:10005000B1200008B1200008B1200008B12000083C
:10006000B1200008B1200008B1200008B12000082C
:10007000B1200008B1200008B1200008B12000081C
:10008000B1200008B1200008B1200008B12000080C
:10009000B1200008B1200008B1200008B1200008FC
:1000A000B1200008B1200008B1200008B1200008EC
:1000B000B1200008B1200008B1200008B1200008DC
:1000C000B1200008B1200008B1200008B1200008CC
:1000D000B1200008B1200008B1200008B1200008BC
:1000E000B1200008B120000800000000B120000885
:1000F000B1200008B1200008B1200008B12000089C
:10010000B1200008B1200008B1200008B12000088B
:10011000B1200008B1200008B1200008B12000087B
:10012000B1200008B1200008B1200008B12000086B
:10013000B1200008B1200008B1200008B12000085B
:1001400000000000000000000000000000000000AF
:10015000B1200008B1200008B1200008B12000083B
:10016000B1200008B1200008B1200008B12000082B
:10017000B1200008B1200008B120000800000000F4
:10018000B1200008B1200008B1200008B12000080B
:10019000B1200008B1200008B1200008B1200008FB
:1001A000B1200008B1200008B1200008B1200008EB
:1001B000B1200008B1200008B1200008B1200008DB
:1001C000B1200008B1200008B1200008B1200008CB
:1001D000B1200008B1200008B1200008B1200008BB
:1001E000B1200008B1200008B1200008B1200008AB
:1001F000B1200008B1200008B1200008B12000089B
:10020000B1200008B1200008B1200008B12000088A
:10021000B1200008B1200008B1200008B12000087A
:10022000B1200008B1200008B12000080000000043
:10023000B1200008B120000800000000B120000833
:10024000B1200008B1200008B1200008B12000084A
:10025000B1200008B1200008B1200008B12000083A
:10026000B1200008B1200008B1200008B12000082A
:10027000B1200008B1200008B120000800000000F3
:10028000B1200008B1200008B120000800000000E3
:0802900000000000B12000088D
:1002980010B5054C237833B9044B13B10448AFF3B8
:1002A80000800123237010BD100000200000000012
:1002B8000C21000808B5034B1BB103490348AFF3F1
:1002C800008008BD00000000140000200C21000878
:1002D80030B585B00024009401940294039400F092
:1002E80075FA01238DF800308DF8014001941F2222
:1002F8008DF8082087228DF809208DF80A408DF89E
:100308000B408DF80C308DF80D308DF80E408DF8BF
:100318000F40684600F078FA042000F065FA05B04E
:1003280030BD72B6FEE7000000B59DB04C2200213A
:1003380009A801F0BAFE2022002101A801F0B5FEAB
:10034800022001F041F9002300931E4BDA6A22F0E3
:100358000102DA62DB6A03F0010300931A4A936927
:1003680023F4404343F480439361936903F4404387
:100378000093009B144B9B6913F4005FFAD002238F
:10038800099301230C9340230D930023129309A88A
:1003980000F066FA90B93F230193002102914FF4CF
:1003A800206303930491059106910791089101A890
:1003B80000F0AAFE20B91DB05DF804FBFFF7B1FFFD
:1003C800FFF7AFFF00040058004802580000000083
:1003D80038B5FFF77DFF01F049F9FFF7A5FF00F0F9
:1003E80079F800F0D1F825E001310929FCD900227B
:1003F8000121334801F0E2F801F072F900F132040A
:1004080001F06EF9A0420AD22E4B1B681A691B69CB
:10041800C3F3800313EA5203F2D0012500E000255C
:10042800284C0021204601F0F1FC0421204601F06F
:10043800EDFCC5B9234D2B6800245C626FF0020205
:100448001A616FF004021A612146284601F02EFC59
:100458000421284601F02AFC01221146184801F01F
:10046800ADF82146C1E723685A6B9B6B9B1A07EED0
:10047800103AB8EE477ADFED147A27EE277ADFEDE7
:10048800137A27EE277AF6EE007A27EE277AB7EE68
:10049800C77A9FED096BB4EEC67BF1EE10FA05D56D
:1004A800002202210A4801F089F8C3E7012202214B
:1004B800074801F083F8BDE79A9999999999C93F36
:1004C800000002582C000020BD3786350080AB4361
:1004D80000080258F0B589B003AD002403940494D1
:1004E800059406940794254BD3F8E02042F00402C3
:1004F800C3F8E020D3F8E02002F004020092009A4A
:10050800D3F8E02042F00102C3F8E020D3F8E0205D
:1005180002F001020192019AD3F8E02042F01002A1
:10052800C3F8E020D3F8E03003F010030293029BF5
:10053800134F01220221384601F040F8114E22469D
:100548000121304601F03AF8022303931123049362
:10055800059406942946384600F020FF01230393AA
:100568000493059406942946304600F017FF214667
:100578004FF0807001F0C0F809B0F0BD0044025897
:10058800000802580000025800B58DB000230893F7
:1005980009930A930B930593069307930193029388
:1005A800039304932748284A026007224260836025
:1005B8004FF6FF72C260036143618023836101F0DB
:1005C800ABF960BB4FF48053089308A91D4801F0AC
:1005D800C1FA38BB1B4801F0CFF930BB00230593A3
:1005E8000693079305A9174801F05EFC00BB00229B
:1005F8000192012302930392049201A9114801F088
:1006080035FAC0B902230193029304220DEB0201CB
:100618000C4801F02BFA88B90DB05DF804FBFFF720
:1006280080FECFE7FFF77DFED4E7FFF77AFED5E738
:10063800FFF777FEDBE7FFF774FEE3E7FFF771FEEE
:10064800EAE700BF2C0000200000014000B589B097
:100658000023039304930593069307930268154BAD
:100668009A4202D009B05DF804FB134BD3F8F0208E
:1006780042F00102C3F8F020D3F8F02002F00102A2
:100688000192019AD3F8E02042F01002C3F8E0206A
:10069800D3F8E03003F010030293029B4FF4007389
:1006A8000393022304930123079303A9034800F04B
:1006B80075FED7E7000001400044025800100258B8
:1006C800FEE7FEE7FEE7FEE7FEE770477047704784
:1006D80008B500F0F9FF08BD82B0074BD3F8F42045
:1006E80042F00202C3F8F420D3F8F43003F0020316
:1006F8000193019B02B0704700440258002804DBB4
:100708000901C9B2044B1954704700F00F000901E0
:10071800C9B2024B1954704700E400E014ED00E040
:1007280000B500F00700C0F1070CBCF1040F28BFAA
:100738004FF0040C031D062B0FD9C31E4FF0FF3ECC
:100748000EFA0CF021EA000199400EFA03FE22EAA3
:100758000E0241EA02005DF804FB0023EEE7000008
:100768000649CB6823F4E0631B041B0C000200F469
:10077800E0600343024A1A43CA60704700ED00E094
:100788000000FA0510B50446054BD868C0F30220EE
:10079800FFF7C6FF01462046FFF7B0FF10BD00BFB8
:1007A80000ED00E00138B0F1807F0BD24FF0E0237C
:1007B8005861054AF02182F8231000209861072229
:1007C8001A6170470120704700ED00E0BFF35F8FAA
:1007D800044B5A6A22F480325A620022C3F89420E9
:1007E800704700BF00ED00E040F00100054BC3F882
:1007F80094005A6A42F480325A62BFF34F8FBFF3B3
:100808006F8F704700ED00E04378144AC2F89830C3
:10081800D2F8A03023F00103C2F8A0304368C2F830
:100828009C30017BC37A1B0643EA0173817A43EA51
:10083800C143417B43EA8143817B43EA4143C17B16
:1008480043EA0143417A43EA0123017A43EA410337
:1008580001780B43C2F8A030704700BF00ED00E0FC
:10086800002800F0398338B50446036813F0010FF7
:1008780025D0944A136903F03803926A102B15D0D7
:10088800182B0FD06368B3F5803F3FD0002B53D1AE
:100898008C4B1A6822F480321A601A6822F480227B
:1008A8001A6038E002F00302022AEBD1854B1B687C
:1008B80013F4003F03D06368002B00F00F83236814
:1008C80013F0020F00F0A1807E4A1369926A13F0B8
:1008D80038035AD0182B55D0E368002B00F0DE807F
:1008E80078490A6822F0190213430B6000F0F8FEF9
:1008F8000546744B1B6813F0040F40F0AD8000F000
:10090800EFFE401B0228F4D90320EEE26D4A13687B
:1009180043F48033136063682BB300F0E1FE0546AF
:10092800684B1B6813F4003FC9D100F0D9FE401B87
:100938006428F5D90320D8E2B3F5A02F09D0614B7C
:100948001A6822F480321A601A6822F480221A6027
:10095800E1E75C4B1A6842F480221A601A6842F494
:1009680080321A60D7E700F0BBFE0546554B1B687E
:1009780013F4003FA3D000F0B3FE401B6428F5D960
:100988000320B2E212F0030FA6D14E4B1B6813F0FE
:10099800040F03D0E368002B00F0A282494A1368D1
:1009A80023F01903E1680B43136000F099FE054634
:1009B800444B1B6813F0040F06D100F091FE401B56
:1009C8000228F5D9032090E200F090FE41F20303DB
:1009D800984212D82269402A07D03A494B6823F432
:1009E8007C3343EA02334B600FE0364A536823F402
:1009F8007C3343F40033536007E0324A536823F0F2
:100A0800FE43216943EA01635360236813F0100F22
:100A180000F088802B4A136903F03803926A082B88
:100A280056D0182B50D0E369002B00F0B880254A27
:100A3800136843F08003136000F052FE0546214B13
:100A48001B6813F4807F40F0888000F049FE401B4B
:100A58000228F4D9032048E200F048FE41F20303DB
:100A6800984212D82269402A07D016494B6823F4C5
:100A78007C3343EA02334B60C7E7124A536823F4D6
:100A88007C3343F400335360BFE70E4A536823F0C6
:100A9800FE43216943EA01635360B6E7094A1368D4
:100AA80023F00103136000F01BFE0546054B1B688D
:100AB80013F0040FA9D000F013FE401B0228F5D94B
:100AC800032012E20044025802F00302012AAAD1CC
:100AD800A14B1B6813F4807F03D0E369802B40F09F
:100AE800018200F003FE41F20303984212D8226A01
:100AF800202A07D098494B6823F0F84343EA8263D9
:100B08004B600FE0944A536823F0F84343F0804366
:100B1800536007E0904AD36823F07C53216A43EA84
:100B28000163D360236813F0080F60D06369002B5A
:100B380049D0894A536F43F00103536700F0D0FD51
:100B48000546854B5B6F13F0020F50D100F0C8FDCE
:100B5800401B0228F5D90320C7E100F0C7FD41F288
:100B68000303984212D8226A202A07D07A494B6890
:100B780023F0F84343EA82634B60D3E7764A53682D
:100B880023F0F84343F080435360CBE7724AD368BD
:100B980023F07C53216A43EA0163D360C2E76E4ABB
:100BA800136823F08003136000F09AFD05466A4B32
:100BB8001B6813F4807FB5D000F092FD401B02281B
:100BC800F5D9032091E1644A536F23F00103536779
:100BD80000F086FD0546604B5B6F13F0020F06D0F0
:100BE80000F07EFD401B0228F5D903207DE1236833
:100BF80013F0200F29D0A3699BB1574A136843F417
:100C08008053136000F06CFD0546534B1B6813F4CA
:100C1800005F1AD100F064FD401B0228F5D90320BB
:100C280063E14D4A136823F48053136000F058FDC4
:100C38000546494B1B6813F4005F06D000F050FDD1
:100C4800401B0228F5D903204FE1236813F0040F55
:100C580021D1636A002B00F047813F4A126902F0F4
:100C68003802182A00F0EE80022B79D03A4A13682D
:100C780023F08073136000F033FD0446364B1B6885
:100C880013F0007F00F0DC8000F02AFD001B022832
:100C9800F4D9032029E1314A136843F480731360BF
:100CA80000F01EFD05462D4B1B6813F4807F06D10E
:100CB80000F016FD401B6428F5D9032015E1A36850
:100CC800012B0AD00BBB244B1A6F22F001021A67C2
:100CD8001A6F22F004021A6704E01F4A136F43F0E8
:100CE80001031367A36833B300F0FAFC05461A4BF7
:100CF8001B6F13F0020FACD100F0F2FC401B41F265
:100D080088339842F3D90320EFE0052B09D0124B22
:100D18001A6F22F001021A671A6F22F004021A678A
:100D2800E0E70D4B1A6F42F004021A671A6F42F09F
:100D380001021A67D6E700F0D3FC0546064B1B6F85
:100D480013F0020F85D000F0CBFC401B41F2883332
:100D58009842F3D90320C8E00044025800480258DA
:100D6800694A136823F08073136000F0B9FC0546E4
:100D7800654B1B6813F0007F06D000F0B1FC401BE8
:100D88000228F5D90320B0E05F4B996A5F4A0A4010
:100D9800A16AE06A41EA00110A439A62226B013AA9
:100DA800C2F30802616B0139490289B20A43A16B97
:100DB8000139090401F4FE010A43E16B013909060E
:100DC80001F0FE410A431A63DA6A22F00102DA628C
:100DD8005A6B6FF3CF02A16C42EAC1025A63DA6A16
:100DE80022F00C02216C0A43DA62DA6A22F002026B
:100DF800616C0A43DA62DA6A42F48032DA62DA6AE9
:100E080042F40032DA62DA6A42F48022DA62DA6A9A
:100E180042F00102DA621A6842F080721A6000F049
:100E28005FFC0446384B1B6813F0007F06D100F0C6
:100E380057FC001B0228F5D9032056E0002054E097
:100E4800002052E0304A916A106B012B4ED001F01D
:100E58000303A26A93424BD1C1F30511E36A994295
:100E680048D1C0F30802236B013B9A4244D1C0F336
:100E78004622636B013B9A4240D1C0F30642A36B02
:100E8800013B9A423CD1C0F30660E36B013B9842B8
:100E980038D11D4B5B6BC3F3CC03A26C9A4201D1D2
:100EA800002022E0184AD36A23F00103D36200F03D
:100EB80017FC054600F014FCA842FBD0124A536BFD
:100EC8006FF3CF03A16C43EAC1035363D36A43F0C2
:100ED8000103D362002008E001207047012004E0EC
:100EE800012002E0012000E0002038BD0120FCE7DD
:100EF8000120FAE70120F8E70120F6E70120F4E7EE
:100F08000120F2E70120F0E7004402580CFCFFFF43
:100F1800754B1B6903F03803102B00F0DE80182B8B
:100F28000FD0002B40F0DB806F4B1B6813F0200FB5
:100F380000F0D7806C4B1B68C3F3C1036B48D840E3
:100F4800704710B4684B9A6A02F003029C6AC4F3B3
:100F58000510D96A01F001015B6BC3F3CC0301FBF7
:100F680003F307EE903AF8EE677A14F47C7F77D0B3
:100F7800012A4AD0022A76D0002A40F091805A4BA2
:100F88001B6813F0200F23D057490A68C2F3C10227
:100F9800564BD34007EE103AF8EE476A07EE100AB0
:100FA800B8EE476A86EE867A0B6BC3F3080306EE43
:100FB800903AF8EE666A9FED4E6A67EE867A76EEAC
:100FC800A77AF7EE006A77EEA67A27EE277A38E056
:100FD80007EE100AF8EE476A9FED466A86EE267A13
:100FE800414B1B6BC3F3080306EE903AF8EE666AB2
:100FF8009FED3F6A67EE867A76EEA77AF7EE006A8B
:1010080077EEA67A27EE277A1BE007EE100AF8EEAD
:10101800476A9FED396A86EE267A334B1B6BC3F31A
:10102800080306EE903AF8EE666A9FED316A67EEBD
:10103800867A76EEA77AF7EE006A77EEA67A27EE3A
:10104800277A294B1B6BC3F34623013307EE903AEB
:10105800F8EE677AC7EE276AFCEEE67A17EE900A92
:101068005DF8044B704707EE100AF8EE476A9FEDEB
:10107800236A86EE267A1C4B1B6BC3F3080306EE25
:10108800903AF8EE666A9FED1A6A67EE867A76EE0F
:10109800A77AF7EE006A77EEA67A27EE277AD0E7E6
:1010A80007EE100AF8EE476A9FED136A86EE267A75
:1010B8000D4B1B6BC3F3080306EE903AF8EE666A15
:1010C8009FED0B6A67EE867A76EEA77AF7EE006AEE
:1010D80077EEA67A27EE277AB3E7094870470948DA
:1010E80070470248704700BF004402580090D00380
:1010F800000000390024744C0024744A20BCBE4B04
:1011080040787D0100093D00002800F0328170B56B
:101118000D4604469B4B1B6803F00F038B420BD212
:10112800984A136823F00F030B431360136803F006
:101138000F038B4240F01F81236813F0040F0CD07B
:101148002269914B9B6903F070039A4205D98E4935
:101158008B6923F070031A438A61236813F0080F20
:101168000CD06269884BDB6903F070039A4205D999
:101178008549CB6923F070031A43CA61236813F0C9
:10118800100F0CD0A269804BDB6903F4E0639A422C
:1011980005D97D49CB6923F4E0631A43CA61236802
:1011A80013F0200F0CD0E269774B1B6A03F0700331
:1011B8009A4205D974490B6A23F070031A430A62EC
:1011C800236813F0020F0CD0E2686F4B9B6903F0A1
:1011D8000F039A4205D96C498B6923F00F031A4310
:1011E8008A61236813F0010F41D0674A936923F499
:1011F8007063A1680B4393616368022B0AD0032BC9
:1012080027D0012B2CD0604A126812F0040F06D1A7
:101218000120ADE0126812F4003F00F0AE805A4998
:101228000A6922F0070213430B6100F059FA0646D7
:10123800554B1B6903F038036268B3EBC20F16D035
:1012480000F04EFA801B41F288339842F0D903200F
:101258008EE04D4A126812F0007FE0D1012087E04D
:10126800494A126812F4807FD9D1012080E02368AE
:1012780013F0020F0CD0E268434B9B6903F00F0395
:101288009A4205D240498B6923F00F031A438A61B9
:101298003C4B1B6803F00F03AB420AD9394A136869
:1012A80023F00F032B431360136803F00F03AB42C3
:1012B80065D1236813F0040F0CD02269324B9B6967
:1012C80003F070039A4205D22F498B6923F070030B
:1012D8001A438A61236813F0080F0CD062692A4BFD
:1012E800DB6903F070039A4205D22749CB6923F0E2
:1012F80070031A43CA61236813F0100F0CD0A26957
:10130800214BDB6903F4E0639A4205D21E49CB699D
:1013180023F4E0631A43CA61236813F0200F0CD04A
:10132800E269194B1B6A03F070039A4205D2164909
:101338000B6A23F070031A430A62FFF7E9FD1249AA
:101348008B69C3F30323114AD35C03F01F03D8400E
:101358008B6903F00F03D35C03F01F0320FA03F338
:101368000B4A13600B4B18600B4B186800F056F9CA
:1013780070BD012070470120FAE70120F8E701203D
:10138800F6E700BF0020005200440258242100085C
:10139800080000200C00002004000020F0B583B0F5
:1013A80000236BE085685E000324B44025EA040549
:1013B800CC68B4402C438460456825EA0C054C6829
:1013C800C4F300149C402C43446069E0DD080835F0
:1013D80050F8254003F0070C4FEA8C0C4FF00F0E25
:1013E8000EFA0CFE24EA0E0E0C6904FA0CF444EA18
:1013F8000E0440F825406BE0092400E0002404FABC
:101408000EF42C430CF1020C694D45F82C404FF0BA
:10141800B0442568D44325EA02064F6817F4801FB4
:1014280001D042EA05064FF0B0452E606D6804EA27
:1014380005064F6817F4001F01D042EA05064FF071
:10144800B0456E60D5F8845004EA05064F6817F475
:10145800003F01D042EA05064FF0B045C5F8846068
:10146800D5F880502C404E6816F4803F01D042EAEF
:1014780005044FF0B042C2F8804001330A6832FADE
:1014880003F400F092804FF0010C0CFA03FC1CEA04
:101498000202F2D04C6804F00304013C012C81D90B
:1014A8004C6804F00304032C0CD0C4685D004FF0B2
:1014B800030C0CFA05FC24EA0C0C8C68AC4044EADA
:1014C8000C04C4604C6804F00304022C3FF47EAFA3
:1014D80004684FEA430E4FF0030C0CFA0EFC24EAA2
:1014E8000C0C4C6804F0030404FA0EF444EA0C04EF
:1014F80004604C6814F4403FBFD02E4CD4F8F4502C
:1015080045F00205C4F8F450D4F8F44004F002049D
:101518000194019C4FEA930C0CF10205244C54F8F9
:10152800255003F0030E4FEA8E0E0F2404FA0EF432
:1015380025EA0405204CA0423FF460AF04F580641E
:10154800A04222D004F58064A04220D004F5806433
:10155800A0421ED004F58064A0421CD004F580642B
:10156800A0421AD004F58064A04218D004F5806423
:10157800A04216D004F58064A04214D004F580641B
:10158800A0423FF439AF0A2439E7012437E702249F
:1015980035E7032433E7042431E705242FE706243D
:1015A8002DE707242BE7082429E703B0F0BD00BF87
:1015B8000004005800440258000002580AB1816132
:1015C8007047090481617047134BDB6813F0040FFF
:1015D80007D1114BDB6803F0070383421AD00120BF
:1015E800704710B50C4AD36823F007030343D36050
:1015F80000F076F80446084B5B6813F4005F07D1E7
:1016080000F06EF8001BB0F57A7FF4D9012000E0F5
:10161800002010BD0020704700480258104B1B786E
:101628000BB90120704710B504464FF47A70B0FB2F
:10163800F3F30C4A1068B0FBF3F0FFF7B3F868B99E
:101648000F2C01D901200AE0002221464FF0FF307B
:10165800FFF798F8044B1C60002000E0012010BD43
:10166800000000200C0000200400002010B503201A
:10167800FFF776F8FFF74CFC0F498B69C3F3032398
:101688000E4AD35C03F01F03D8408B6903F00F03A5
:10169800D35C03F01F0320FA03F3094A1360094BD4
:1016A80018600F20FFF7BAFF10B10124204610BDC3
:1016B8000446FFF711F8F9E700440258242100080E
:1016C800080000200C000020034B1B78034A116817
:1016D8000B441360704700BF000000207800002012
:1016E800014B1868704700BF78000020014B18684C
:1016F800000C70470010005C034A536823EA00039B
:101708000B435360704700BF0004005810B4036ACD
:10171800046A24F001040462846924F0F00C4CEAA1
:10172800021223F00A030B43826103625DF8044B43
:10173800704730B4056A046A24F0100404628469AE
:1017480024F4407C4CEA022C2CF4704C1B039BB212
:1017580043EA0C0325F0A005090101F0A001294383
:101768008361016230BC704710B4036A046A24F0D4
:1017780010040462846924F4704C4CEA023223F0A9
:10178800A00343EA0113826103625DF8044B7047CA
:1017980030B4056A046A24F480740462C46924F0CD
:1017A800030C4CEA020C2CF0F00C1B01DBB243EAF0
:1017B8000C0325F42065090201F420612943C36163
:1017C800016230BC704730B4056A046A24F480545E
:1017D8000462C46924F4407C4CEA022C2CF4704C5A
:1017E8001B039BB243EA0C0325F42045090301F4CB
:1017F80020412943C361016230BC70478268034BB2
:1018080013400B4343F00703836070478FFFCFFFFC
:101818007047000070B40368394A904214BF002230
:101828000122B0F1804F14BF144642F00104ACB954
:10183800344DA84214BF00250125334EB0420DD0C7
:1018480065B905F1804505F58235A84214BF002524
:10185800012506F50066B04200D01DB123F07003E3
:101868004D682B4314BB274CA04214BF002401240D
:10187800254DA8421AD0CCB904F1804404F582342D
:10188800A04214BF0024012405F50065A8420DD02C
:1018980064B91E4CA04214BF0024012405F59A35F2
:1018A800A84203D014B91A4CA04203D123F44073C0
:1018B800CC68234323F080034C6923438C68C462BB
:1018C8000C688462134CA04208BF42F0010262B95E
:1018D8000E4A904214BF0022012204F57054A0421F
:1018E80003D012B90A4A904201D10A690263026818
:1018F80042F00402026001224261036070BC70473A
:10190800000001400008004000040040004401407D
:10191800004801400004014060B310B5044690F847
:101928003D3013B3022384F83D30214651F8040BAF
:10193800FFF770FF012384F8483084F83E3084F8BC
:101948003F3084F8403084F8413084F8423084F8DD
:10195800433084F8443084F8453084F8463084F8BD
:10196800473084F83D30002010BD80F83C30FEF749
:101978006DFED7E70120704760B310B5044690F8B4
:101988003D3013B3022384F83D30214651F8040B4F
:10199800FFF740FF012384F8483084F83E3084F88C
:1019A8003F3084F8403084F8413084F8423084F87D
:1019B800433084F8443084F8453084F8463084F85D
:1019C800473084F83D30002010BD80F83C30FFF7E8
:1019D8001FFFD7E70120704770B49446066A046A6F
:1019E80024F00104046284691D4DB0F1804F18BFD2
:1019F800A84223D01B4A904214BF00220122A5F519
:101A08007C45A8421AD0CAB902F1804202F5823256
:101A1800904214BF0022012205F50065A8420DD0AE
:101A280062B9114A904214BF0022012205F54065AF
:101A3800A84203D012B944F0010203E024F00302E3
:101A480042EA0C0222F0F0021B01DBB2134326F03B
:101A58000A0201F00A0111438361016270BC7047F8
:101A680000000140000800400040014038B590F8EF
:101A78003C30012B5ED004460D46012380F83C30F3
:101A88000C2A52D8DFE802F007515151195151512F
:101A98002C5151513E00CB684A6809680068FFF72D
:101AA8009BFF2268936923F00C0393612268936972
:101AB800A9680B439361002038E0CB684A6809683D
:101AC8000068FFF736FE2268936923F44063936148
:101AD80022689369A96843EA01239361002025E0FD
:101AE800CB684A6809680068FFF752FE2268D36924
:101AF80023F00C03D3612268D369A9680B43D3612F
:101B0800002013E0CB684A6809680068FFF75BFEAD
:101B18002268D36923F44063D3612268D369A96832
:101B280043EA0123D361002000E00120002384F868
:101B38003C3038BD0220FCE710B4846824F47F4CA4
:101B480042EA03220A4342EA0C0282605DF8044B2F
:101B58007047000090F83C30012B00F08F8010B5E2
:101B68000446012380F83C30022380F83D300268A7
:101B78009068434B034093600B68702B55D031D865
:101B8800502B6CD01FD8402B0AD1CA6849682068EE
:101B9800FFF7BCFD40212068FFF730FE002029E058
:101BA80068D8202B03D00AD80BB1102B05D11946C1
:101BB8002068FFF723FE00201CE001201AE0302BEC
:101BC800F5D0012016E0602B0AD1CA684968206860
:101BD800FFF7CAFD60212068FFF710FE002009E02A
:101BE800012007E0B3F5005F2CD00AD8B3F5805F79
:101BF80042D10020012384F83D30002384F83C3092
:101C080010BD204A9342D2D007D8B3F5801FCED05A
:101C1800B3F1101FCBD00120ECE71B4A9342C6D08A
:101C280010329342C3D00120E4E7CB684A68896840
:101C38002068FFF781FF2268936843F07703936079
:101C48000020D7E7CB684A6889682068FFF774FFE7
:101C58002268936843F4804393600020CAE7CA6807
:101C680049682068FFF752FD50212068FFF7C6FD3C
:101C78000020BFE70120BDE70120BBE70220704735
:101C88008800CEFF200010003000100001F01F0176
:101C98004FF0010C0CFA01FC036A23EA0C030362FF
:101CA800036A8A40134303627047000010B5044674
:101CB800102921D8DFE801F0092020201020202059
:101CC80014202020182020201C0090F83E20D2B29A
:101CD80090F84430DBB219E090F83F20D2B20EE021
:101CE80090F84020D2B20AE090F84120D2B206E043
:101CF80090F84220D2B202E090F84320D2B20429F0
:101D080015D0082917D094F84730DBB2012B08BF4B
:101D1800012A73D1102928D8DFE801F011272727D5
:101D2800172727271B2727271F272727230094F84C
:101D38004530DBB2EAE794F84630DBB2E6E7022347
:101D480084F83E3084F8443019E0022384F83F30A8
:101D58000EE0022384F840300AE0022384F8413080
:101D680006E0022384F8423002E0022384F843307C
:101D780004292DD008292FD0022384F847300122C6
:101D88002068FFF783FF23681E4AB3F1804F18BF0E
:101D9800934225D0A2F57C42934221D002F580627D
:101DA80093421DD002F58062934219D002F5784221
:101DB800934215D0A2F56C42934211D002F59432A9
:101DC80093420DD01A6842F001021A60002016E012
:101DD800022384F84530D2E7022384F84630CEE760
:101DE8009968094A0A40062A18BFB2F5803F07D009
:101DF8001A6842F001021A60002000E0012010BDBC
:101E08000020FCE7000001400700010038B5044647
:101E18000D4600220068FFF739FF2368196A41F26E
:101E28001112114208D1196A40F24442114203D1F9
:101E38001A6822F001021A60102D20D8DFE805F098
:101E4800091F1F1F0F1F1F1F131F1F1F171F1F1FD4
:101E58001B00012384F83E3084F8443019E0012344
:101E680084F83F300EE0012384F840300AE0012373
:101E780084F8413006E0012384F8423002E001236F
:101E880084F84330042D06D0082D08D0012384F8A7
:101E98004730002038BD012384F84530F9E7012395
:101EA80084F84630F5E7000090F83C20012A45D038
:101EB80070B40346012280F83C20022280F83D20BD
:101EC8000268506894681E4E1E4DAA4218BFB2425E
:101ED80003D120F470004D68284320F070000D688D
:101EE800284350601A681648B2F1804F18BF8242E2
:101EF80017D0A0F57C40824213D000F58060824262
:101F08000FD000F5806082420BD000F57840824205
:101F180007D0A0F56C40824203D000F5943082428D
:101F280004D124F08004896821439160012283F858
:101F38003D20002083F83C0070BC704702207047A9
:101F48000000014000040140314AD2F8883043F4CF
:101F58007003C2F888302F4B1B6803F00F03062B61
:101F680006D82C4A136823F00F0343F007031360C5
:101F7800294B1A6842F001021A6000221A61196896
:101F8800264A0A401A60234B1B6813F0080F06D034
:101F9800204A136823F00F0343F0070313601E4B16
:101FA80000229A61DA611A621D4999621D49D96253
:101FB8001D4919635A639963DA6319645A64196885
:101FC80021F4802119601A66184B1B686FF30F0300
:101FD800B3F1005F03D2164B0122C3F808210E4B60
:101FE800D3F8D43013F4805F10D10B4BD3F8D4203E
:101FF80042F48052C3F8D4200E4A43F2D201116051
:10200800D3F8D42022F48052C3F8D420704700BFFC
:1020180000ED00E000200052004402587FEDF6EA8F
:10202800000202020000FF01800201010010005CB2
:102038000080005100400052054AD36843F0020373
:10204800D360034B5B6813F4005FFAD0704700BF9E
:1020580000480258DFF838D0FFF7EEFFFFF774FFAB
:102068000C480D490D4A002302E0D458C4500433EB
:10207800C4188C42F9D30A4A0A4C002301E01360C1
:102088000432A242FBD300F019F8FEF7A1F9704719
:102098000000022000000020100000203C21000861
:1020A800100000207C000020FEE702440346934213
:1020B80000D1704703F8011BF9E7000070B50D4B1C
:1020C8000D4D5B1B9C100026A64209D100F01AF8A2
:1020D8000A4D0B4B5B1B9C100026A64205D170BD18
:1020E80055F8043B98470136EEE755F8043B984706
:1020F8000136F2E7342100083421000834210008B1
:1021080038210008F8B500BFF8BC08BC9E467047E7
:0C211800F8B500BFF8BC08BC9E4670473C
:102124000000000001020304010203040607080979
:04213400BD020008E0
:042138009902000800
:10213C0001000000100000000090D0030090D003BC
:040000050800205D72
:00000001FF
