:020000040800F2
:1000000000000220DD1F0008A9050008AB0500085C
:10001000AD050008AF050008B105000800000000AC
:10002000000000000000000000000000B305000810
:10003000B505000800000000B7050008B905000874
:10004000312000083120000831200008312000084C
:10005000312000083120000831200008312000083C
:10006000312000083120000831200008312000082C
:10007000312000083120000831200008312000081C
:10008000312000083120000831200008312000080C
:1000900031200008312000083120000831200008FC
:1000A00031200008312000083120000831200008EC
:1000B00031200008312000083120000831200008DC
:1000C00031200008312000083120000831200008CC
:1000D00031200008312000083120000831200008BC
:1000E0003120000831200008000000003120000805
:1000F000312000083120000831200008312000089C
:10010000312000083120000831200008312000088B
:10011000312000083120000831200008312000087B
:10012000312000083120000831200008312000086B
:10013000312000083120000831200008312000085B
:1001400000000000000000000000000000000000AF
:10015000312000083120000831200008312000083B
:10016000312000083120000831200008312000082B
:100170003120000831200008312000080000000074
:10018000312000083120000831200008312000080B
:1001900031200008312000083120000831200008FB
:1001A00031200008312000083120000831200008EB
:1001B00031200008312000083120000831200008DB
:1001C00031200008312000083120000831200008CB
:1001D00031200008312000083120000831200008BB
:1001E00031200008312000083120000831200008AB
:1001F000312000083120000831200008312000089B
:10020000312000083120000831200008312000088A
:10021000312000083120000831200008312000087A
:1002200031200008312000083120000800000000C3
:1002300031200008312000080000000031200008B3
:10024000312000083120000831200008312000084A
:10025000312000083120000831200008312000083A
:10026000312000083120000831200008312000082A
:100270003120000831200008312000080000000073
:100280003120000831200008312000080000000063
:0802900000000000312000080D
:1002980010B5054C237833B9044B13B10448AFF3B8
:1002A80000800123237010BD100000200000000012
:1002B800682E000808B5034B1BB103490348AFF388
:1002C800008008BD0000000014000020682E00080F
:1002D80030B585B00024009401940294039400F092
:1002E800E5F901238DF800308DF8014001941F22B3
:1002F8008DF8082087228DF809208DF80A408DF89E
:100308000B408DF80C308DF80D308DF80E408DF8BF
:100318000F40684600F0E8F9042000F0D5F905B070
:1003280030BD72B6FEE7000000B59DB04C2200213A
:1003380009A801F07AFE2022002101A801F075FE2B
:10034800022001F0ABF8002300931E4BDA6A22F07A
:100358000102DA62DB6A03F0010300931A4A936927
:1003680023F4404343F480439361936903F4404387
:100378000093009B144B9B6913F4005FFAD002238F
:10038800099301230C9340230D930023129309A88A
:1003980000F0D6F988B93F23019300230293039311
:1003A80004930593069307930893012101A800F08D
:1003B8001BFE20B91DB05DF804FBFFF7B2FFFFF785
:1003C800B0FF00BF000400580048025800000000B9
:1003D80010B5FFF77DFF01F0B3F8FFF7A5FF00F0B8
:1003E8004BF800F067F8224C0021204601F0E0FBB2
:1003F8000021204601F09CFC01F0DCF807EE100A11
:10040800B8EE477B9FED166B27EE067BB7EEC77BF2
:10041800B7EEC77A9FED140B27EE000B01F034FE00
:10042800B6EE007B00EE077BB7EEC77B114981ED86
:10043800007A0F4B1A68D36A9BB2013307EE903AE1
:1004480091ED007AF8EEE77A67EE877AFCEEE77AC4
:1004580017EE903A9BB25363CEE700BFAFF300802C
:10046800FCA9F1D24D62503F1F85EB51B81E1940CF
:10047800300000202C00002082B00D4BD3F8E02083
:1004880042F00102C3F8E020D3F8E02002F00102B4
:100498000092009AD3F8E02042F01002C3F8E0205E
:1004A800D3F8E03003F010030193019B02B07047CA
:1004B80000440258F0B597B013AF00241394149475
:1004C80015940CAE0C940D940E940F9410941194F2
:1004D80012942C22214601A801F0A7FD124D134BBE
:1004E8002B6063236B60AC6040F2E733EB602C61F8
:1004F8006C61AC61284601F035FA13941494159494
:100508003946284601F090FC60230C930D940E9414
:100518000F9410941194129422463146284601F003
:100528009BFA17B0F0BD00BF30000020000001406A
:1005380000B589B0002303930493059306930793AA
:100548000268144B9A4202D009B05DF804FB124BC2
:10055800D3F8F02042F00102C3F8F020D3F8F020DD
:1005680002F001020192019AD3F8E02042F004025D
:10057800C3F8E020D3F8E03003F004030293029BB1
:100588000223039304930123079303A9034800F06C
:1005980075FED9E7000001400044025800080258DF
:1005A800FEE7FEE7FEE7FEE7FEE7704770477047A5
:1005B80008B500F0F3FF08BD82B0074BD3F8F4206C
:1005C80042F00202C3F8F420D3F8F43003F0020337
:1005D8000193019B02B0704700440258002804DBD5
:1005E8000901C9B2044B1954704700F00F00090102
:1005F800C9B2024B1954704700E400E014ED00E062
:1006080000B500F00700C0F1070CBCF1040F28BFCB
:100618004FF0040C031D062B0FD9C31E4FF0FF3EED
:100628000EFA0CF021EA000199400EFA03FE22EAC4
:100638000E0241EA02005DF804FB0023EEE7000029
:100648000649CB6823F4E0631B041B0C000200F48A
:10065800E0600343024A1A43CA60704700ED00E0B5
:100668000000FA0510B50446054BD868C0F302200F
:10067800FFF7C6FF01462046FFF7B0FF10BD00BFD9
:1006880000ED00E00138B0F1807F0BD24FF0E0239D
:100698005861054AF02182F823100020986107224A
:1006A8001A6170470120704700ED00E0BFF35F8FCB
:1006B800044B5A6A22F480325A620022C3F894200A
:1006C800704700BF00ED00E040F00100054BC3F8A3
:1006D80094005A6A42F480325A62BFF34F8FBFF3D4
:1006E8006F8F704700ED00E04378144AC2F89830E5
:1006F800D2F8A03023F00103C2F8A0304368C2F852
:100708009C30017BC37A1B0643EA0173817A43EA72
:10071800C143417B43EA8143817B43EA4143C17B37
:1007280043EA0143417A43EA0123017A43EA410358
:1007380001780B43C2F8A030704700BF00ED00E01D
:10074800002800F0398338B50446036813F0010F18
:1007580025D0944A136903F03803926A102B15D0F8
:10076800182B0FD06368B3F5803F3FD0002B53D1CF
:100778008C4B1A6822F480321A601A6822F480229C
:100788001A6038E002F00302022AEBD1854B1B689D
:1007980013F4003F03D06368002B00F00F83236835
:1007A80013F0020F00F0A1807E4A1369926A13F0D9
:1007B80038035AD0182B55D0E368002B00F0DE80A0
:1007C80078490A6822F0190213430B6000F0F2FE20
:1007D8000546744B1B6813F0040F40F0AD8000F021
:1007E800E9FE401B0228F4D90320EEE26D4A1368A3
:1007F80043F48033136063682BB300F0DBFE0546D7
:10080800684B1B6813F4003FC9D100F0D3FE401BAE
:100818006428F5D90320D8E2B3F5A02F09D0614B9D
:100828001A6822F480321A601A6822F480221A6048
:10083800E1E75C4B1A6842F480221A601A6842F4B5
:1008480080321A60D7E700F0B5FE0546554B1B68A5
:1008580013F4003FA3D000F0ADFE401B6428F5D987
:100868000320B2E212F0030FA6D14E4B1B6813F01F
:10087800040F03D0E368002B00F0A282494A1368F2
:1008880023F01903E1680B43136000F093FE05465B
:10089800444B1B6813F0040F06D100F08BFE401B7D
:1008A8000228F5D9032090E200F08AFE41F2030302
:1008B800984212D82269402A07D03A494B6823F453
:1008C8007C3343EA02334B600FE0364A536823F423
:1008D8007C3343F40033536007E0324A536823F013
:1008E800FE43216943EA01635360236813F0100F44
:1008F80000F088802B4A136903F03803926A082BAA
:1009080056D0182B50D0E369002B00F0B880254A48
:10091800136843F08003136000F04CFE0546214B3A
:100928001B6813F4807F40F0888000F043FE401B72
:100938000228F4D9032048E200F042FE41F2030302
:10094800984212D82269402A07D016494B6823F4E6
:100958007C3343EA02334B60C7E7124A536823F4F7
:100968007C3343F400335360BFE70E4A536823F0E7
:10097800FE43216943EA01635360B6E7094A1368F5
:1009880023F00103136000F015FE0546054B1B68B4
:1009980013F0040FA9D000F00DFE401B0228F5D972
:1009A800032012E20044025802F00302012AAAD1ED
:1009B800A14B1B6813F4807F03D0E369802B40F0C0
:1009C800018200F0FDFD41F20303984212D8226A29
:1009D800202A07D098494B6823F0F84343EA8263FA
:1009E8004B600FE0944A536823F0F84343F0804388
:1009F800536007E0904AD36823F07C53216A43EAA6
:100A08000163D360236813F0080F60D06369002B7B
:100A180049D0894A536F43F00103536700F0CAFD78
:100A28000546854B5B6F13F0020F50D100F0C2FDF5
:100A3800401B0228F5D90320C7E100F0C1FD41F2AF
:100A48000303984212D8226A202A07D07A494B68B1
:100A580023F0F84343EA82634B60D3E7764A53684E
:100A680023F0F84343F080435360CBE7724AD368DE
:100A780023F07C53216A43EA0163D360C2E76E4ADC
:100A8800136823F08003136000F094FD05466A4B59
:100A98001B6813F4807FB5D000F08CFD401B022842
:100AA800F5D9032091E1644A536F23F0010353679A
:100AB80000F080FD0546604B5B6F13F0020F06D017
:100AC80000F078FD401B0228F5D903207DE123685A
:100AD80013F0200F29D0A3699BB1574A136843F438
:100AE8008053136000F066FD0546534B1B6813F4F2
:100AF800005F1AD100F05EFD401B0228F5D90320E3
:100B080063E14D4A136823F48053136000F052FDEB
:100B18000546494B1B6813F4005F06D000F04AFDF8
:100B2800401B0228F5D903204FE1236813F0040F76
:100B380021D1636A002B00F047813F4A126902F015
:100B48003802182A00F0EE80022B79D03A4A13684E
:100B580023F08073136000F02DFD0446364B1B68AC
:100B680013F0007F00F0DC8000F024FD001B022859
:100B7800F4D9032029E1314A136843F480731360E0
:100B880000F018FD05462D4B1B6813F4807F06D135
:100B980000F010FD401B6428F5D9032015E1A36877
:100BA800012B0AD00BBB244B1A6F22F001021A67E3
:100BB8001A6F22F004021A6704E01F4A136F43F009
:100BC80001031367A36833B300F0F4FC05461A4B1E
:100BD8001B6F13F0020FACD100F0ECFC401B41F28C
:100BE80088339842F3D90320EFE0052B09D0124B44
:100BF8001A6F22F001021A671A6F22F004021A67AC
:100C0800E0E70D4B1A6F42F004021A671A6F42F0C0
:100C180001021A67D6E700F0CDFC0546064B1B6FAC
:100C280013F0020F85D000F0C5FC401B41F2883359
:100C38009842F3D90320C8E00044025800480258FB
:100C4800694A136823F08073136000F0B3FC05460B
:100C5800654B1B6813F0007F06D000F0ABFC401B0F
:100C68000228F5D90320B0E05F4B996A5F4A0A4031
:100C7800A16AE06A41EA00110A439A62226B013ACA
:100C8800C2F30802616B0139490289B20A43A16BB8
:100C98000139090401F4FE010A43E16B013909062F
:100CA80001F0FE410A431A63DA6A22F00102DA62AD
:100CB8005A6B6FF3CF02A16C42EAC1025A63DA6A37
:100CC80022F00C02216C0A43DA62DA6A22F002028C
:100CD800616C0A43DA62DA6A42F48032DA62DA6A0A
:100CE80042F40032DA62DA6A42F48022DA62DA6ABC
:100CF80042F00102DA621A6842F080721A6000F06B
:100D080059FC0446384B1B6813F0007F06D100F0ED
:100D180051FC001B0228F5D9032056E0002054E0BE
:100D2800002052E0304A916A106B012B4ED001F03E
:100D38000303A26A93424BD1C1F30511E36A9942B6
:100D480048D1C0F30802236B013B9A4244D1C0F357
:100D58004622636B013B9A4240D1C0F30642A36B23
:100D6800013B9A423CD1C0F30660E36B013B9842D9
:100D780038D11D4B5B6BC3F3CC03A26C9A4201D1F3
:100D8800002022E0184AD36A23F00103D36200F05E
:100D980011FC054600F00EFCA842FBD0124A536B2A
:100DA8006FF3CF03A16C43EAC1035363D36A43F0E3
:100DB8000103D362002008E001207047012004E00D
:100DC800012002E0012000E0002038BD0120FCE7FE
:100DD8000120FAE70120F8E70120F6E70120F4E70F
:100DE8000120F2E70120F0E7004402580CFCFFFF65
:100DF800754B1B6903F03803102B00F0DE80182BAD
:100E08000FD0002B40F0DB806F4B1B6813F0200FD6
:100E180000F0D7806C4B1B68C3F3C1036B48D84004
:100E2800704710B4684B9A6A02F003029C6AC4F3D4
:100E38000510D96A01F001015B6BC3F3CC0301FB18
:100E480003F307EE903AF8EE677A14F47C7F77D0D4
:100E5800012A4AD0022A76D0002A40F091805A4BC3
:100E68001B6813F0200F23D057490A68C2F3C10248
:100E7800564BD34007EE103AF8EE476A07EE100AD1
:100E8800B8EE476A86EE867A0B6BC3F3080306EE64
:100E9800903AF8EE666A9FED4E6A67EE867A76EECD
:100EA800A77AF7EE006A77EEA67A27EE277A38E077
:100EB80007EE100AF8EE476A9FED466A86EE267A34
:100EC800414B1B6BC3F3080306EE903AF8EE666AD3
:100ED8009FED3F6A67EE867A76EEA77AF7EE006AAC
:100EE80077EEA67A27EE277A1BE007EE100AF8EECF
:100EF800476A9FED396A86EE267A334B1B6BC3F33C
:100F0800080306EE903AF8EE666A9FED316A67EEDE
:100F1800867A76EEA77AF7EE006A77EEA67A27EE5B
:100F2800277A294B1B6BC3F34623013307EE903A0C
:100F3800F8EE677AC7EE276AFCEEE67A17EE900AB3
:100F48005DF8044B704707EE100AF8EE476A9FED0C
:100F5800236A86EE267A1C4B1B6BC3F3080306EE46
:100F6800903AF8EE666A9FED1A6A67EE867A76EE30
:100F7800A77AF7EE006A77EEA67A27EE277AD0E707
:100F880007EE100AF8EE476A9FED136A86EE267A96
:100F98000D4B1B6BC3F3080306EE903AF8EE666A36
:100FA8009FED0B6A67EE867A76EEA77AF7EE006A0F
:100FB80077EEA67A27EE277AB3E7094870470948FB
:100FC80070470248704700BF004402580090D003A1
:100FD800000000390024744C0024744A20BCBE4B25
:100FE80040787D0100093D00002800F0328170B58D
:100FF8000D4604469B4B1B6803F00F038B420BD234
:10100800984A136823F00F030B431360136803F027
:101018000F038B4240F01F81236813F0040F0CD09C
:101028002269914B9B6903F070039A4205D98E4956
:101038008B6923F070031A438A61236813F0080F41
:101048000CD06269884BDB6903F070039A4205D9BA
:101058008549CB6923F070031A43CA61236813F0EA
:10106800100F0CD0A269804BDB6903F4E0639A424D
:1010780005D97D49CB6923F4E0631A43CA61236823
:1010880013F0200F0CD0E269774B1B6A03F0700352
:101098009A4205D974490B6A23F070031A430A620D
:1010A800236813F0020F0CD0E2686F4B9B6903F0C2
:1010B8000F039A4205D96C498B6923F00F031A4331
:1010C8008A61236813F0010F41D0674A936923F4BA
:1010D8007063A1680B4393616368022B0AD0032BEA
:1010E80027D0012B2CD0604A126812F0040F06D1C9
:1010F8000120ADE0126812F4003F00F0AE805A49BA
:101108000A6922F0070213430B6100F053FA0646FE
:10111800554B1B6903F038036268B3EBC20F16D056
:1011280000F048FA801B41F288339842F0D9032036
:101138008EE04D4A126812F0007FE0D1012087E06E
:10114800494A126812F4807FD9D1012080E02368CF
:1011580013F0020F0CD0E268434B9B6903F00F03B6
:101168009A4205D240498B6923F00F031A438A61DA
:101178003C4B1B6803F00F03AB420AD9394A13688A
:1011880023F00F032B431360136803F00F03AB42E4
:1011980065D1236813F0040F0CD02269324B9B6988
:1011A80003F070039A4205D22F498B6923F070032C
:1011B8001A438A61236813F0080F0CD062692A4B1E
:1011C800DB6903F070039A4205D22749CB6923F003
:1011D80070031A43CA61236813F0100F0CD0A26978
:1011E800214BDB6903F4E0639A4205D21E49CB69BF
:1011F80023F4E0631A43CA61236813F0200F0CD06C
:10120800E269194B1B6A03F070039A4205D216492A
:101218000B6A23F070031A430A62FFF7E9FD1249CB
:101228008B69C3F30323114AD35C03F01F03D8402F
:101238008B6903F00F03D35C03F01F0320FA03F359
:101248000B4A13600B4B18600B4B186800F050F9F1
:1012580070BD012070470120FAE70120F8E701205E
:10126800F6E700BF0020005200440258802E000814
:10127800080000200C00002004000020F0B583B016
:1012880000236BE085685E000324B44025EA04056A
:10129800CC68B4402C438460456825EA0C054C684A
:1012A800C4F300149C402C43446069E0DD08083511
:1012B80050F8254003F0070C4FEA8C0C4FF00F0E46
:1012C8000EFA0CFE24EA0E0E0C6904FA0CF444EA39
:1012D8000E0440F825406BE0092400E0002404FADD
:1012E8000EF42C430CF1020C694D45F82C404FF0DC
:1012F800B0442568D44325EA02064F6817F4801FD6
:1013080001D042EA05064FF0B0452E606D6804EA48
:1013180005064F6817F4001F01D042EA05064FF092
:10132800B0456E60D5F8845004EA05064F6817F496
:10133800003F01D042EA05064FF0B045C5F8846089
:10134800D5F880502C404E6816F4803F01D042EA10
:1013580005044FF0B042C2F8804001330A6832FAFF
:1013680003F400F092804FF0010C0CFA03FC1CEA25
:101378000202F2D04C6804F00304013C012C81D92C
:101388004C6804F00304032C0CD0C4685D004FF0D3
:10139800030C0CFA05FC24EA0C0C8C68AC4044EAFB
:1013A8000C04C4604C6804F00304022C3FF47EAFC4
:1013B80004684FEA430E4FF0030C0CFA0EFC24EAC3
:1013C8000C0C4C6804F0030404FA0EF444EA0C0410
:1013D80004604C6814F4403FBFD02E4CD4F8F4504D
:1013E80045F00205C4F8F450D4F8F44004F00204BF
:1013F8000194019C4FEA930C0CF10205244C54F81B
:10140800255003F0030E4FEA8E0E0F2404FA0EF453
:1014180025EA0405204CA0423FF460AF04F580643F
:10142800A04222D004F58064A04220D004F5806454
:10143800A0421ED004F58064A0421CD004F580644C
:10144800A0421AD004F58064A04218D004F5806444
:10145800A04216D004F58064A04214D004F580643C
:10146800A0423FF439AF0A2439E7012437E70224C0
:1014780035E7032433E7042431E705242FE706245E
:101488002DE707242BE7082429E703B0F0BD00BFA8
:10149800000400580044025800000258134BDB684F
:1014A80013F0040F07D1114BDB6803F007038342E5
:1014B8001AD00120704710B50C4AD36823F00703EF
:1014C8000343D36000F076F80446084B5B6813F4D6
:1014D800005F07D100F06EF8001BB0F57A7FF4D9F1
:1014E800012000E0002010BD00207047004802588D
:1014F800104B1B780BB90120704710B504464FF408
:101508007A70B0FBF3F30C4A1068B0FBF3F0FFF706
:10151800B9F868B90F2C01D901200AE00022214648
:101528004FF0FF30FFF79EF8044B1C60002000E0EE
:10153800012010BD000000200C0000200400002045
:1015480010B50320FFF77CF8FFF752FC0F498B69B1
:10155800C3F303230E4AD35C03F01F03D8408B69FF
:1015680003F00F03D35C03F01F0320FA03F3094AC7
:101578001360094B18600F20FFF7BAFF10B1012460
:10158800204610BD0446FFF717F8F9E70044025853
:10159800802E0008080000200C000020034B1B7858
:1015A800034A11680B441360704700BF0000002015
:1015B8007C000020014B1868704700BF7C000020A9
:1015C800014B1868000C70470010005CF0B4026A08
:1015D800036A23F001030362466884691E4B2340B3
:1015E8000D681D4322F002028B6813431B4A1C4CF2
:1015F800A04218BF90420CBF012200220CD004F573
:101608008044A04214BF00240124164FB84203D0DE
:1016180014B9154CA04205D123F00803CC68234324
:1016280023F004035AB9114A904214BF0022012240
:101638000C4CA04203D012B90B4A904205D126F4B3
:1016480040764A6932438E691643466085614A6826
:1016580042630362F0BC70478CFFFEFF000001404C
:10166800000401400040014000480140004401409E
:1016780070B4036A026A22F4807202624568C4691F
:101688001A4A22400E68164323F400738A6843EA14
:101698000223174A174CA04218BF90420CBF0122E0
:1016A800002206D123F40063CC6843EA042323F420
:1016B80080635AB9104A904214BF002201220F4C8D
:1016C800A04203D012B90E4A904207D125F44052E5
:1016D8004C6942EA04128C6942EA04154560C66105
:1016E8004A68C263036270BC704700BF8CFFFEFF8C
:1016F8000000014000040140004401400040014056
:101708000048014070B4036A026A22F480520262FF
:101718004468C569144A2A400D6842EA052223F440
:1017280000538D6843EA0533104E114DA84218BF87
:10173800B0420DD005F58045A84214BF002501250B
:1017480006F58046B04203D015B90A4DA84204D127
:1017580024F480444D6944EA85144460C2614A68AF
:101768000264036270BC7047FF8CFFFE00000140FA
:10177800000401400048014070B4036A026A22F480
:10178800803202624268456D144E2E400D682E4329
:1017980023F400338C6843EA0443114D114CA042F2
:1017A80018BFA8420DD004F58044A04214BF0024FD
:1017B800012405F58045A84203D014B90A4CA0427B
:1017C80004D122F480324C6942EA04224260466520
:1017D8004A688265036270BC704700BF8FFFFEFFD6
:1017E80000000140000401400048014070B4036A51
:1017F800026A22F4801202624468456D144A2A4043
:101808000D6842EA052223F400138D6843EA055364
:10181800104E114DA84218BFB0420DD005F58045B5
:10182800A84214BF0025012506F58046B04203D022
:1018380015B90A4DA84204D124F480244D6944EA1C
:101848008524446042654A68C265036270BC70477B
:10185800FF8FFFFE000001400004014000480140E6
:1018680070B40368394A904214BF00220122B0F1D3
:10187800804F14BF144642F00104ACB9344DA8425D
:1018880014BF00250125334EB0420DD065B905F1CE
:10189800804505F58235A84214BF0025012506F5C7
:1018A8000066B04200D01DB123F070034D682B4391
:1018B80014BB274CA04214BF00240124254DA84284
:1018C8001AD0CCB904F1804404F58234A04214BF84
:1018D8000024012405F50065A8420DD064B91E4C0A
:1018E800A04214BF0024012405F59A35A84203D06C
:1018F80014B91A4CA04203D123F44073CC68234393
:1019080023F080034C6923438C68C4620C688462AA
:10191800134CA04208BF42F0010262B90E4A90423D
:1019280014BF0022012204F57054A04203D012B95A
:101938000A4A904201D10A690263026842F004022D
:10194800026001224261036070BC704700000140E0
:1019580000080040000400400044014000480140E5
:101968000004014060B310B5044690F83D3013B34D
:10197800022384F83D30214651F8040BFFF770FF2D
:10198800012384F8483084F83E3084F83F3084F8E6
:10199800403084F8413084F8423084F8433084F889
:1019A800443084F8453084F8463084F8473084F869
:1019B8003D30002010BD80F83C30FEF7B9FDD7E778
:1019C8000120704770B4036A026A22F010020262B2
:1019D800456884691A4E26400C6846EA042623F0B6
:1019E80020038A6843EA0213164A174CA04218BF1C
:1019F80090420CBF0122002206D123F08003CC685C
:101A080043EA041323F040035AB9104A904214BF22
:101A1800002201220E4CA04203D012B90D4A904276
:101A280007D125F4406C4A694CEA820C8A694CEA71
:101A38008205456086614A688263036270BC7047AC
:101A4800FF8CFFFE000001400004014000440140FB
:101A5800004001400048014038B590F83C30012B67
:101A680000F0958004460D46012380F83C30142A86
:101A780000F28880DFE802F00B8686861F8686865D
:101A880034868686488686865D86868671000068E6
:101A9800FFF79CFD2268936943F00803936122686D
:101AA800936923F0040393612268936929690B43BE
:101AB8009361002067E00068FFF784FF226893695C
:101AC80043F4006393612268936923F4806393610C
:101AD80022689369296943EA01239361002052E04F
:101AE8000068FFF7C5FD2268D36943F00803D36196
:101AF8002268D36923F00403D3612268D369296972
:101B08000B43D36100203EE00068FFF7FBFD22682D
:101B1800D36943F40063D3612268D36923F48063F3
:101B2800D3612268D369296943EA0123D36100207C
:101B380029E00068FFF720FE2268536D43F0080390
:101B480053652268536D23F0040353652268536D6F
:101B580029690B435365002015E00068FFF746FE2E
:101B68002268536D43F4006353652268536D23F470
:101B7800806353652268536D296943EA01235365DD
:101B8800002000E00120002384F83C3038BD02200A
:101B9800FCE701F01F014FF0010C0CFA01FC036A8D
:101BA80023EA0C030362036A8A4013430362704703
:101BB80010B50446102928D8DFE801F0092727279F
:101BC8000F272727152727271B272727210090F8C6
:101BD8003E30013B18BF01231CE090F83F30013B29
:101BE80018BF012316E090F84030013B18BF0123CD
:101BF80010E090F84130013B18BF01230AE090F84B
:101C08004230013B18BF012304E090F84330013B08
:101C180018BF0123002B71D110291ED8DFE801F06D
:101C2800091D1D1D0D1D1D1D111D1D1D151D1D1D14
:101C38001900022384F83E3012E0022384F83F3072
:101C48000EE0022384F840300AE0022384F8413091
:101C580006E0022384F8423002E0022384F843308D
:101C680001222068FFF795FF23682649264A9342F8
:101C780018BF8B420BD002F57052934207D002F581
:101C88008062934203D002F58062934203D15A6C7A
:101C980042F400425A6423681A4AB3F1804F18BFCD
:101CA80093421DD0A2F57C42934219D002F580627E
:101CB800934215D002F58062934211D002F5784222
:101CC80093420DD0A2F56C42934209D002F59432AA
:101CD800934205D01A6842F001021A6000200EE013
:101CE80099680A4A0A40062A18BFB2F5803F07D009
:101CF8001A6842F001021A60002000E0012010BDBD
:101D08000020FCE70000014000040140070001003A
:101D180001F00F014FF0040C0CFA01FC036A23EAEE
:101D28000C030362036A8A4013430362704700008E
:101D380010B50446084600293AD194F84430013BCE
:101D480018BF0123002B67D1002847D1022384F84C
:101D58004430042201462068FFF7DAFF2268536CFA
:101D680043F40043536423682D4AB3F1804F18BFEE
:101D7800934243D0A2F57C4293423FD002F5806261
:101D880093423BD002F58062934237D002F5784205
:101D9800934233D0A2F56C4293422FD002F594328D
:101DA80093422BD01A6842F001021A60002034E0F6
:101DB800042907D008290BD094F84730013B18BFF5
:101DC8000123BFE794F84530013B18BF0123B9E769
:101DD80094F84630013B18BF0123B3E7042805D027
:101DE800082807D0022384F84730B2E7022384F892
:101DF8004530AEE7022384F84630AAE79968094AD5
:101E08000A40062A18BFB2F5803F07D01A6842F088
:101E180001021A60002000E0012010BD0020FCE74C
:101E2800000001400700010090F83C20012A45D03D
:101E380070B40346012280F83C20022280F83D203D
:101E48000268506894681E4E1E4DAA4218BFB242DE
:101E580003D120F470004D68284320F070000D680D
:101E6800284350601A681648B2F1804F18BF824262
:101E780017D0A0F57C40824213D000F580608242E2
:101E88000FD000F5806082420BD000F57840824286
:101E980007D0A0F56C40824203D000F5943082420E
:101EA80004D124F08004896821439160012283F8D9
:101EB8003D20002083F83C0070BC7047022070472A
:101EC8000000014000040140314AD2F8883043F450
:101ED8007003C2F888302F4B1B6803F00F03062BE2
:101EE80006D82C4A136823F00F0343F00703136046
:101EF800294B1A6842F001021A6000221A61196817
:101F0800264A0A401A60234B1B6813F0080F06D0B4
:101F1800204A136823F00F0343F0070313601E4B96
:101F280000229A61DA611A621D4999621D49D962D3
:101F38001D4919635A639963DA6319645A64196805
:101F480021F4802119601A66184B1B686FF30F0380
:101F5800B3F1005F03D2164B0122C3F808210E4BE0
:101F6800D3F8D43013F4805F10D10B4BD3F8D420BE
:101F780042F48052C3F8D4200E4A43F2D2011160D1
:101F8800D3F8D42022F48052C3F8D420704700BF7D
:101F980000ED00E000200052004402587FEDF6EA10
:101FA800000202020000FF01800201010010005C33
:101FB8000080005100400052054AD36843F00203F4
:101FC800D360034B5B6813F4005FFAD0704700BF1F
:101FD80000480258DFF838D0FFF7EEFFFFF774FF2C
:101FE8000C480D490D4A002302E0D458C45004336C
:101FF800C4188C42F9D30A4A0A4C002301E0136042
:102008000432A242FBD300F019F8FEF7E1F9704759
:10201800000002200000002010000020703000089E
:102028001000002080000020FEE70244034693428F
:1020380000D1704703F8011BF9E7000070B50D4B9C
:102048000D4D5B1B9C100026A64209D100F008FF2D
:102058000A4D0B4B5B1B9C100026A64205D170BD98
:1020680055F8043B98470136EEE755F8043B984786
:102078000136F2E768300008683000086830000868
:102088006C30000800000000B0EE407B17EE903A7C
:102098001B4A23F0004393421BD91A4A934202D9A0
:1020A80030EE400B704700B585B0684600F02CF85C
:1020B80000F0030001289DED000B9DED021B13D0DD
:1020C80002280BD098B9012000F05AFD05B05DF840
:1020D80004FB9FED091B002000F052BD012000F019
:1020E8004FFDB1EE400BF1E700F0B2FCEEE700F077
:1020F800AFFCB1EE400BE9E7000000000000000073
:10210800FB21E93FFFFFEF7F2DE9F04153EC102B56
:102118009F4923F00048884588B004466BD99D49FB
:1021280088451D461CD8002B9FED897B40F3EF8026
:1021380030EE477BA1F51B21A1F5F06188456BD0F6
:102148009FED855B37EE456B37EE467B37EE457B7B
:1021580084ED006B84ED027B012008B0BDE8F081BE
:102168008D49884565D98D4988454ED816464FEA28
:102178002852A2F21642A8EB025747EC176B9FEDC4
:10218800784BBDEEC75B08A8B8EEC55B37EE457B5C
:1021980027EE047BBDEEC76B8DED025BB8EEC66B18
:1021A80037EE467B8DED046B27EE047B8DED067BC9
:1021B800032130ED027BB5EE407BF1EE10FA0B46C1
:1021C80001F1FF31F5D0764901910221009102A871
:1021D800214600F0EDF8002DBFDA94ED006B94ED88
:1021E800027BB1EE466BB1EE477B84ED006B84ED6C
:1021F800027B4042B1E70020002184ED000BC4E9D6
:102208000201002008B0BDE8F08130EE407B80ED8F
:10221800027B80ED007BF4E79FED535B9FED546BF1
:1022280037EE467B37EE456B37EE467B37EE457B20
:102238008EE700F0FDFCB6EE007B9FED4F5BA0EE55
:10224800057BFDEEC77B9FED424B9FED436B17EE81
:10225800900A1F28B8EEE75BA5EE440B25EE067B37
:10226800B1EE454B30EE476B1ADC4E4B421E53F82D
:102278002230434514D084ED006B30EE460B30EE2F
:10228800470B002D84ED020BBFF667AFB1EE466B2E
:10229800B1EE400B84ED006B84ED020B40425CE72D
:1022A80016EE903AC3F30A53C3EB1853102B4FEAB8
:1022B8002852E0DDB0EE403B9FED2D6B9FED2A2BC1
:1022C800A4EE063B30EE437BA4EE067B95EE027B44
:1022D80033EE476B16EE903AC3F30A53D21A312AFB
:1022E80004DCB0EE430B84ED006BC6E79FED246B76
:1022F800B0EE430B9FED242BA4EE060B33EE407B90
:10230800A4EE067B95EE027B30EE476BB3E72649D9
:1023180030EE077B88450ED09FED0F5B37EE056BDF
:1023280037EE467B37EE057B84ED006B84ED027B50
:102338004FF0FF3011E79FED0C5B9FED0D6B37EE13
:10234800067B37EE056B37EE467B37EE057BEBE712
:1023580000004054FB21F93F3163621A61B4D03D5B
:1023680000000000000070417370032E8A19A33B1F
:102378000000601A61B4D03D83C8C96D305FE43F86
:102388000000002E8A19A33BC14920259A837B3976
:10239800FB21E93F7BD90240FB213941FFFFEF7F59
:1023A800102F0008902E0008FB21F93F00000000C4
:1023B8002DE9F04F2DED088BADF5137D1C460393E9
:1023C8008146D34BA49812F1140F53F8205004F10E
:1023D800FF38C0F26B82CF48D31E80FB0340DB1767
:1023E800C3EBA00302930133A3EB8303DB001A447E
:1023F800029B15EB0804A3EB08031AD401349FEDE4
:10240800BE6BA59E1C441AA80AE056F8237007EE76
:10241800907A0133B8EEE77BA342A0EC027B08D0A8
:10242800002BF2DAB0EE467B0133A342A0EC027B2C
:10243800F6D1002DC0F2D882039B1AAC04EBC3047A
:102448006AAF4FEAC30E464605EB030C09EBC3001F
:102458004FF0000A4FF0000BB8F1000F80F2CA806D
:1024680001366645E7E802AB04F10804F4D10DF142
:10247800180A0AEB85039FEDA29B9FEDA38B043BF3
:1024880009EB0E0404930AEB8507AB466AAE009588
:10249800104605910DEBCB03BBF1000F93ED6A0BD2
:1024A8004FEACB0315DD3344524620EE097B33ED6A
:1024B800025BB0EE406BBDEEC77BB342B8EEC77BA4
:1024C800A7EE486BBDEEC66B37EE050BA2EC016AB2
:1024D800EBD1019000F0B4FBB4EE007BB0EE40AB62
:1024E80020EE070B00F030FCB2EE007B0198A0EE66
:1024F80047ABBDEECABB0028B8EECB7B3AEE47AB84
:1025080040F385800BF1FF32C0F118035AF822C05E
:102518004CFA03F101FA03F3ACEB0303C0F117051E
:102528001BEE10CA43FA05F58C44002D0BEE10CAB9
:102538004AF8223000F32A81B5EE40ABF1EE10FAEA
:1025480076D1009B9B450BDD0AEB8B03002253F8E9
:10255800041DBB4242EA0102F9D1002A40F073810E
:10256800009B013B5AF823200BF101039C46002AEB
:1025780040F06781049A012152F8045D0131002D71
:10258800FAD05944029D039A05EB030E0EF1804ED2
:10259800A59D0EF1FF3E5A4405EB8E0E1AAD06EBD3
:1025A800C30B05EBC2059EED017AB8EEC77BB8F107
:1025B800000FA5EC027B0EF1040E9FED4F7B09DBAB
:1025C8002A464B46B3EC025B32ED026BA342A5EE02
:1025D800067BF7D10CF1010C8C45ABEC027BE2DDFC
:1025E8008B4657E701366645A7EC027B04F10804E1
:1025F8003FF43DAF9FED407BA2464B46B3EC025BF8
:102608003AED026B8342A5EE067BF7D1EAE700F0CC
:10261800FF80B6EE007BB4EEC7ABF1EE10FA80F2A5
:102628003381B5EE40ABF1EE10FA4FF0000588D0DB
:1026380002460599B0EE4A0B404202950191009D71
:10264800009200F0FDFA9FED305BB0EE407BB4EEF7
:10265800C50BF1EE10FADDE90021029BC0F2998169
:102668009FED276B20EE066BBDEEC66B0BF10104E8
:10267800B8EEC64BA4EE457BBDEEC77B183217EE0D
:10268800100A4AF82B0016EE100A4AF82400B7EE92
:10269800000B1046CDE9003100F0D2FA002CDDE93C
:1026A8000031C0F2A5819FED165B661C6AAF0AEB8C
:1026B8008602F00007EBC60632ED017A5245B8EE05
:1026C800C77B27EE007B20EE050B26ED027BF3D1BE
:1026D8000DF5847EA0F108021744F046A4460026B2
:1026E8009A46002D9FED047B24DB0B4BB946002254
:1026F8001CE000BFAFF300800000000000000000F5
:10270800000000000000703E000000000000704162
:1027180058300008ABAAAA2A18300008B3EC025BAC
:10272800B9EC026B9542A5EE067B03DBB24202F1DF
:102738000102F3DD0CF1FF3CBCF1FF3FA8EC027B8A
:1027480006F10106A7F10807CBD1A49A022A53463D
:1027580000F3D280002A00F3AE800DD19FEDBA7B42
:10276800704430ED026B704537EE067BF9D1002BD3
:1027780040F02D8181ED007B1BEE103A03F007003D
:102788000DF5137DBDEC088BBDE8F08F6146013176
:10279800BBF1000F0BEE101A40F31C8153464FF0AB
:1027A800000C53F8042B72B3C2F1807243F8042C66
:1027B8006FF07F4203E01968511A43F8041B0CF1CB
:1027C800010CE345F7DC012200280BDD012852D07B
:1027D800022807D10BF1FF315AF82130C3F3150352
:1027E8004AF82130022D7FF4A7AEB7EE000B30EE89
:1027F8004AAB002A3FF4A0AE019000F021FA0198FC
:102808003AEE40AB98E60CF1010CE345C9DCDBE796
:102818000BF1FF335AF82350ED15002D7FF78CAEDE
:102828001BEE103ABBF1000F03F101030BEE103A57
:10283800B4DC022D7FF480AEB7EE007B37EE4AABF6
:102848007AE619469EE60BF1FF34A0F118025AF811
:10285800240005992B46009D00287FF418AF0BF142
:10286800804001380AEB800050F8046D013C183AAA
:10287800002EF9D00BE70BF1FF315AF82130C3F3E2
:1028880016034AF82130ADE71BEE103ABBF1000FF2
:1028980003F101030BEE103AC8BF02253FF77EAFE4
:1028A800B7EE007B37EE4AAB022545E600206FF015
:1028B800170302909BE59EED007B9FED636B7044D0
:1028C80030ED025B704536EE056BF9D1002B75D102
:1028D80037EE467B81ED006B5CB144A80122B0EC79
:1028E800026B0132944237EE067BF8DA0BB1B1EE97
:1028F800477B81ED027B3FE7A49A032A7FF43CAF34
:10290800002C00F090800EEBC40696ED006BE500FD
:102918003246304630ED027BB0EE465B704536EE0F
:10292800076B37EE467B80ED006B37EE057B80ED5D
:10293800027BEFD1012C76D096ED006B0EF10800EA
:1029480032ED027BB0EE465B904236EE076B37EE17
:10295800467B82ED006B37EE057B82ED027BEFD183
:102968009FED397B05F1080272440EF1100032ED3B
:10297800026B904237EE067BF9D19EED005B9EED2F
:10298800026B73B981ED005B81ED026B81ED047B15
:10299800F2E6BDEEC07B5C4617EE100A4AF82B0043
:1029A80075E6B1EE455BB1EE466BB1EE477B81ED66
:1029B800005B81ED026B81ED047BDDE6B1EE465BE9
:1029C80037EE467B81ED005B002C86D18FE7B1EEB8
:1029D800477BCFE6012818D002287FF42AAFC3F33B
:1029E80015034AF8223024E7039B4FEAC30E3EE55D
:1029F800A49A022A11DC002A18DC7FF4BDAE9FEDF0
:102A0800127B002B3FF4B6AEE1E7C3F31603022DA9
:102A18004AF822307FF490AD0EE7A49A032A7FF497
:102A2800ABAE0DF5847E9FED087BA6E79DED427B5E
:102A38002BB100224FF00043C1E9002357E70022E1
:102A48000023C1E9002354E7000000000000000053
:102A580010EE903A23F00043B3F1795F2DED028B2D
:102A68002ED2FDEEC07B17EE903A002B65D020EEFB
:102A7800004B9FED358B9FED362B9FED373BA4EE3A
:102A8800082B9FED375BA4EE023B9FED376BA4EE5E
:102A9800035B9FED377BA4EE056BA4EE067B24EE6B
:102AA800077B21EE401BB6EE006BA4EE071BB7EECA
:102AB800000B94EE061BBDEC028B30EE410B704709
:102AC8009FED218B20EE004B9FED212B9FED223BAC
:102AD800A4EE082B9FED225BA2EE043B9FED226B38
:102AE800A3EE045B9FED227BA5EE046B224AA6EEC3
:102AF800047B934227EE047BD3D9204A934217D80C
:102B0800B7EE006B0020A3F5001141EC150B36EE73
:102B1800456B21EE401BB6EE003BA4EE071B94EE7E
:102B2800035BBDEC028B35EE415B36EE450B70471F
:102B3800B6EE076BB5EE025BEBE7B7EE000BBDEC4C
:102B4800028B7047AFF30080D43888BEE9FAA8BD7D
:102B5800C4B1B4BD9EEE213EAD529C804F7E92BE64
:102B68009015CB19A001FA3E7751C1166CC156BF1A
:102B78004C5555555555A53F3233D33F0000E93FD5
:102B880010EE903A23F00043B3F1795F04D2FDEEE2
:102B9800C07B17EE903A5BB320EE007B9FED162BBF
:102BA8009FED173B9FED184BA7EE023B9FED185B7F
:102BB800A3EE074B9FED186BA4EE075BA5EE076B22
:102BC80020EE075B30B99FED164BA7EE064BA4EE3F
:102BD800050B70479FED144B26EE456BB6EE003B98
:102BE800A1EE036B96EE071BA5EE041B30EE410B1E
:102BF800704700BFAFF300807CD5CF5A3AD9E53D86
:102C0800EB9C2B8AE6E55ABE7DFEB157E31DC73E15
:102C1800D561C119A0012ABFA6F810111111813F71
:102C2800495555555555C5BF495555555555C53F30
:102C380051EC100B024621F0004343EC102B704777
:102C480053EC102B10B4C3F30A54194664BB23F099
:102C58000041114325D09FED2E7B394920EE077B9B
:102C6800884253EC172B49DBC3F30A541946363C08
:102C78004CF2503C604520DC204440F2FE74A042F7
:102C88001BDC00282BDC10F1350F31DB36306FF3FD
:102C98001E519FED217B41EA005343EC102B20EE9F
:102CA800070B5DF8044B704740F2FF7C6445DFD1A9
:102CB80030EE000B5DF8044B7047002B9FED187B3E
:102CC80006DB9FED170B27EE000B5DF8044B7047F2
:102CD8009FED157B9FED120B27EE000BF5E76FF3C9
:102CE8001E5141EA005343EC102B5DF8044B70472A
:102CF800002B9FED0F7B01DA9FED0F7B9FED0C0BF7
:102D08005DF8044B27EE000B704700BFAFF300805F
:102D18000000000000005043000000000000903C4C
:102D28009C7500883CE4377E9C7500883CE437FE3F
:102D380059F3F8C21F6EA50159F3F8C21F6EA58199
:102D4800B03CFFFF0000000000B583B08DED000B24
:102D580001990098C1F30A52A2F2FF33132B25DC24
:102D6800002B46DB3C4A1A4101EA020E5EEA000EDD
:102D78008C4620D09FED367B9DED006B36EE077BB1
:102D8800B5EEC07BF1EE10FA09DD002904DA4FF444
:102D9800801141FA03F39C442CEA020100200B46FF
:102DA800024643EC102B03B05DF804FB332B07DD20
:102DB800B3F5806F2BD09DED000B03B05DF804FBDD
:102DC800A2F213424FF0FF3C2CFA02F21042F2D06A
:102DD8009FED1F7B9DED006B36EE077BB5EEC07B4C
:102DE800F1EE10FADBDD002984461CDB2CEA020038
:102DF800D5E79FED177B30EE077BB5EEC07BF1EE94
:102E080010FACCDD002907DB00200146C7E79DED5D
:102E1800007B37EE070BD0E721F0004108430FD1C4
:102E28004FF00041BBE7142B0DD04FF0010EC3F15A
:102E380034030EFA03F39C44604588BF7144D5E718
:102E480006490020ABE70131D0E700BFAFF30080AF
:102E58009C7500883CE4377EFFFF0F000000F0BF40
:102E6800F8B500BFF8BC08BC9E467047F8B500BF6F
:082E7800F8BC08BC9E4670473F
:102E80000000000001020304010203040607080910
:102E9000FB21F93FFB2109407CD91240FB2119405D
:102EA0007A6A1F407CD92240BBFD2540FB21294086
:102EB0003A462C407A6A2F405C4731407CD93240F8
:102EC0009C6B3440BBFD3540DB8F3740FB213940E4
:102ED0001BB43A403A463C405AD83D407A6A3F409B
:102EE0004C7E40405C4741406C1042407CD942409F
:102EF0008CA243409C6B4440AC344540BBFD4540F4
:102F0000CBC64640DB8F4740EB584840FB21494049
:102F100083F9A200444E6E00FC291500D15727000A
:102F2000DD34F50062DBC0003C9995004190430020
:102F30006351FE00BBDEAB00B761C5003A6E2400F2
:102F4000D24D42004906E00009EA2E001C92D10051
:102F5000EB1DFE0029B11C00E83EA700F5358200FC
:102F600044BB2E009CE98400B4267000417E5F00C3
:102F7000D6913900538339009CF439008B5F84006B
:102F800028F9BD00F81F3B00DEFF97000F980500F1
:102F9000112FEF000A5A8B006D1F6D00CF7E360097
:102FA00009CB2700464FB7009E663F002DEA5F0021
:102FB000BA277500E5EBC7003D7BF100F739070044
:102FC00092528A00FB6BEA001FB15F00085D8D0022
:102FD000300356007BFC4600F0AB6B0020BCCF00FA
:102FE00036F49A00E3A91D005E619100081BE6001B
:102FF00085996500A0145F008D40680080D8FF00AF
:1030000027734D0006063100CA561500C9A8730083
:103010007BE260006B8CC00000000040FB21F93FA8
:10302000000000002D44743E000000809846F83CEB
:103030000000006051CC783B00000080831BF03919
:103040000000004020257A38000000802282E3360C
:10305000000000001DF369350200000003000000BD
:0830600004000000060000005E
:04306800BD0200089D
:04306C0099020008BD
:1030700001000000100000000090D0030090D00379
:0400000508001FDDF3
:00000001FF
